:020000040800F2
:1000000020300020010100084D0400084F040008C2
:1000100053040008570400085B04000800000000B7
:100020000000000000000000000000005F04000865
:100030006104000800000000630400086504000873
:100040001B0100081B0100081B0100081B01000820
:100050001B0100081B0100081B0100081B01000810
:100060001B0100081B0100081B010008F505000822
:100070001B0100081B0100081B0100081B010008F0
:100080001B0100081B0100081B0100081B010008E0
:100090001B0100081B0100081B010008F7050008F0
:1000A0001B010008DF0500081B0100081B010008F8
:1000B0001B01000855050008DD0500081B010008AC
:1000C0001B0100081B0100081B0100081B010008A0
:1000D0001B01000867040008430500081B01000815
:1000E0001B0100081B0100081B010008DFF80CD0F1
:1000F00004F01AFB00480047550300082030002098
:100100000648804706480047FEE7FEE7FEE7FEE7B1
:10011000FEE7FEE7FEE7FEE7FEE7FEE7C345000871
:10012000ED00000801461C48405C012804D1002075
:10013000194A5054012070470020FCE717490A680B
:1001400002604A68426089688160704707B5134859
:100150000099016001994160029981600EBD1048CB
:10016000007870470E49087070470E480078704755
:100170000C490870704708B58100009100E000BF8D
:1001800000994A1E00920029F9D108BD064800884E
:100190007047054908807047000000209C0400203B
:1001A0004D0000204E0000204C04002010B500F04F
:1001B000A1FA00F0D9FA4FF4A06101F00702824BD6
:1001C00018684FF6FF031840804B034343EA0220B0
:1001D0007D4B186000BF4FF4E13000F0E7FA4FF4B8
:1001E000E13000F02CFB7AA004F0FEFA78A000F0D9
:1001F0006BFA482002F006F800F038FC4FF4E151A9
:10020000322000F04CFB00F0D6FB00F044FC00F084
:100210005EFC00F069FC00F0F7FC00F076FC00F0FA
:1002200036FD10BD704710B501F015FB00F084FFDE
:1002300010BD10B501F0F9FB10BD70B5FE2500240E
:1002400000F039FE0546284601F074FBFFF79EFFDB
:1002500004465CB1601E84B22046FFF79AFF2CB9B9
:1002600060A000F031FA00206549087070BD10B53B
:100270000024FFF774FF044644B1601EC4B2204658
:10028000FFF770FF14B9012001F01CF810BD704792
:1002900000B587B001A8FFF751FF01A807C804AB5C
:1002A00007C39DF81400012812D15648007838B9C8
:1002B0000120544908704021534802F08EFD0BE0A4
:1002C00000205049087040214F4802F088FD03E0AB
:1002D00040214D4802F083FD01A8FFF72FFF01A840
:1002E00007C804AB07C39DF8130001280ED1454889
:1002F0000078012804D10102434802F06EFD0AE0B3
:100300004FF48071404802F06AFD04E04FF48071C0
:100310003D4802F064FD01A8FFF710FF01A807C8DF
:1003200004AB07C39DF8170001280DD135480078AC
:10033000012804D18021344802F04FFD08E08021DB
:10034000314802F04CFD03E080212F4802F047FDC8
:1003500007B000BD0024FFF729FFFFF763FF2BA0C4
:1003600000F0B2F92EA000F0AFF9204601F05DFDDB
:100370000446214630A004F037FA24E0FFF753FF8B
:100380000020FFF7CFFE012801D1FFF752FF012027
:10039000FFF7C8FE012801D1FFF74FFF0220FFF74A
:1003A000C1FE012801D1FFF762FF0320FFF7BAFE6B
:1003B000012801D1FFF76BFF0420FFF7B3FE0128EE
:1003C00001D1FFF765FFD9E70CED00E00000FA0569
:1003D0000D0A205553415254325F436F6E66696770
:1003E000000000000D0A2042544D206E6F207265FF
:1003F00073706F6E73652074696D656F757400003E
:100400004F00002051040020001001400D0A20532D
:10041000797374656D20496E697420456E640000BF
:100420000D0A20414453317839785F444556494399
:10043000455F534C4F5400000D0A20696E69745F8C
:10044000414453317839782025640000704700BF5B
:10045000FEE700BFFEE700BFFEE700BFFEE7704714
:1004600070477047704710B5002462E07B4803F086
:1004700075FFC4B2AA2C06D1AA20794908700020C1
:100480007849087052E076480078AA280CD0744861
:100490008078734A527840EA0221714800F01CFDCE
:1004A000FF207049087010BD6E480078401C6D49EF
:1004B00008706B480978445480786949497840EA63
:1004C0000120694908806748017867480088C01C96
:1004D00081422AD1624863490978405CFC2806D1F0
:1004E00062A000F0F1F80120634908701AE05E484C
:1004F00001885B4800F0FBFC59495A4A1278895C34
:10050000884203D102205C4908700BE05BA000F038
:10051000DBF853488078524A527840EA022150482A
:1005200000F0DAFCFF204F49087000BF00BF00F068
:1005300040FF2021494803F07BFF002896D100BFEF
:10054000B1E710B500BF2021504803F071FF00282B
:10055000F9D110BD10B501214D4803F0AAFD0028C6
:100560003BD001214A4803F0B5FD4A480088401CB1
:100570004849088000BF012047490870454908885C
:1005800000EBD0714910B0EB410102D1012042498A
:10059000487040480088142190FBF1F201FB1200E2
:1005A00010B901203C4988703A480088642190FBCA
:1005B000F1F201FB120010B901203749C87035482B
:1005C0000088C82190FBF1F201FB120028B901203C
:1005D0003149087100202F49088010BD704710B5BF
:1005E00001212E4803F065FD18B101212B4803F0CD
:1005F00071FD10BD704770B50024002600254FF432
:10060000807002F0C5FA40B34FF4807002F0D1FA66
:100610004FF4FA70FFF7AFFD304601F013FB4FF4D3
:10062000FA70FFF7A8FD00BF0BE0AA21304601F0E9
:100630005AFC45B21A480555E8B201F039FE601C73
:10064000C4B21B2CF1DB304601F003FB15480078E7
:1006500020F00100401C1349087070BD00380140B3
:10066000A804002052040020540400200D0A205247
:100670004356204F4B000000440400200D0A205236
:100680004356204552524F520000000000440040A3
:10069000000400405604002000000020002C01400F
:1006A000000C00205004002070B504460D46E1B255
:1006B0000F4803F04FFE00BF40210D4803F0B8FE85
:1006C0000028F9D0204670BD70B504460CE02578AE
:1006D0002946074803F03EFE00BF8021044803F08E
:1006E000A7FE0028F9D0641C20780028EFD170BD47
:1006F0000044004010B50121042002F079FD0121E1
:10070000082002F075FD0121102002F071FD012189
:10071000202002F06DFD0121402002F069FD012141
:10072000802002F065FD0121084602F061FD0121F3
:10073000880302F05DFD0121480402F066FD0121FD
:10074000022002F062FD0121C80202F051FD0121E8
:10075000480202F04DFD0121084602F03CFD012156
:10076000080302F045FD10BD10B500214FF00060F8
:1007700001F014FE10BD08B54FF40070ADF8000094
:1007800003208DF8020018208DF803006946F9480F
:1007900002F078FA4FF48060ADF8000004208DF884
:1007A00003006946F34802F06DFA08BD10B586B043
:1007B0000446FFF7E0FF02940020ADF80C00ADF80E
:1007C0000E00ADF81000ADF814000C20ADF81200CA
:1007D00002A9E94803F0C5FC25208DF8040000209B
:1007E0008DF8050001208DF806008DF8070001A89E
:1007F00001F0A1FD012240F22551DF4803F049FD3F
:100800000121DD4803F039FD06B010BD08B5042014
:10081000ADF8000003208DF8020018208DF80300C9
:100820006946D44802F02EFA0820ADF800000420F2
:100830008DF803006946CF4802F024FA08BD10B5D0
:1008400086B00446FFF7E2FF02940020ADF80C00EA
:10085000ADF80E00ADF81000ADF814000C20ADF8A6
:10086000120002A9C54803F07CFC26208DF8040084
:1008700002208DF8050001208DF806008DF8070094
:1008800001A801F058FD012240F22551BB4803F0B8
:1008900000FD0121B94803F0F0FC06B010BD7FB5A2
:1008A00004460D4601224121B54803F054F9ADF844
:1008B0000840681E80B2ADF804000020ADF80A00C0
:1008C000ADF8060001A9AE4802F0CEFD1D208DF85E
:1008D000000000208DF801008DF8020001208DF845
:1008E0000300684601F027FD0121A54803F0DEFB67
:1008F0000021A34803F014FA0121A14803F010F9E4
:100900007FBD7FB504460D46012241219D4803F07D
:1009100022F9ADF80840681E80B2ADF8040000204E
:10092000ADF80A00ADF806008DF80C0001A9954855
:1009300002F09AFD19208DF8000001208DF80100C9
:1009400003208DF8020001208DF80300684601F0B5
:10095000F2FC01218B4803F0A9FB0021894803F038
:10096000DFF90121874803F0DBF87FBD00B58BB0CC
:10097000854801F071FF854800908548019000206E
:1009800002900120039000200490802005904000F8
:100990000690800007902020089000020990002017
:1009A0000A906946784801F0F9FF0121764802F083
:1009B00020F80BB000BD00B587B0FFF7D7FF4FF4AC
:1009C000004002F07CFB0120ADF8040000208DF80F
:1009D000070001A9674802F055F96C484C3801F04E
:1009E00013FD0020029001208DF80C008DF80D0001
:1009F0004FF4602004900020059001208DF818002D
:100A000002A962484C3801F026FD0623012200218C
:100A10005E484C3801F0B7FD01215C484C3801F0CC
:100A200051FD012159484C3801F041FD0A2001F0E7
:100A300005FC56484C3801F05CFD00BF53484C386B
:100A400001F05CFD0028F9D150484C3801F060FD00
:100A500000BF4E484C3801F060FD0028F9D101215B
:100A60004A484C3801F063FD07B000BD08B54FF4AB
:100A70007070ADF8000003208DF8020010208DF892
:100A800003006946434802F0FDF84FF47071414895
:100A900002F0A5F908BD08B50220ADF8000003205A
:100AA0008DF8020010208DF803006946394802F0E5
:100AB000E9F80420ADF8000003208DF802001020B2
:100AC0008DF803006946334802F0DCF808BD10B524
:100AD0000221304802F083F9022001F0AFFB02212D
:100AE0002C4802F07AF910BD10B50421294802F013
:100AF00074F94FF4167001F0A1FB0421254802F0AF
:100B00006EF91020FFF72EFB10BD00B587B0E02076
:100B1000ADF8040018208DF8070003208DF80600BA
:100B200001A9144802F0AEF80020ADF808004FF417
:100B30008270ADF80A000020ADF80C00ADF80E0090
:100B40000120ADF810004002ADF812001820ADF8F9
:100B500014000020ADF816000720ADF8180002A917
:100B60000D4801F088FA01210B4801F0A2FA07B004
:100B700000BD000000080140003801400044004072
:100B800000040040002C0140080002404C240140B9
:100B90004E0400200010014000300140024600BF1A
:100BA000108910F0020FFBD0918100BF108910F066
:100BB000010FFBD09089C0B2704770B50546002484
:100BC00005E0601CC4B2C82C01DD002070BD02210C
:100BD000594801F0E6FA0028F3D02946564801F0BA
:100BE0008DFA002400BF0121534801F0DAFA0028F1
:100BF000F9D0601CC4B2C82C01DD0020E6E74E48E5
:100C000001F07EFAC0B2E1E708B50820ADF80000B7
:100C100003208DF8020010208DF803006946474834
:100C200002F030F80220ADF8000003208DF8020039
:100C300010208DF803006946414802F023F8012096
:100C4000ADF8000003208DF8020010208DF803009D
:100C500069463C4802F016F80220ADF80000032077
:100C60008DF8020010208DF803006946354802F027
:100C700009F81020ADF8000003208DF802001020C4
:100C80008DF8030069462F4801F0FCFF08BD1CB534
:100C90004FF48070ADF8040003208DF80600482062
:100CA0008DF8070001A9284801F0ECFF0821032076
:100CB00002F0FCF84FF480702449086000200871AD
:100CC0000C20487101208871084601F0FBFE1720B6
:100CD0008DF8000001208DF8010002208DF802003F
:100CE00001208DF80300684601F025FB1CBD10B5FE
:100CF00004464FF4807001F05CFF012013498871B5
:100D0000084601F0DFFE10BD10B5044600200F4973
:100D10008871084601F0D6FE10BD10B5044624B90E
:100D20000221074802F05BF805E0012C03D1022103
:100D3000034802F052F810BD00300140001001409D
:100D400000080140000C014000140140580400203C
:100D500010B5044634B1012C09D0022C0CD0032C60
:100D600016D10FE04021F94802F037F816E0802153
:100D7000F64802F032F811E04FF48071F34802F0C7
:100D80002CF80BE04FF40071F04802F026F805E073
:100D90004FF47071ED4802F020F800BF00BF10BDA5
:100DA00030B50446087820B101280FD002287AD146
:100DB00067E0208840F6DC65A84201DC012008706D
:100DC000FE20E34D28700020107071E0208840F66E
:100DD000DC65A84250DC1078401C107010780128A7
:100DE0004EDB0220087001201870208840F67865DC
:100DF000A84203DB0720D64D287041E0208840F64A
:100E0000EA55A84203DB0620D14D287038E020883F
:100E100040F66E55A84203DB0520CD4D28702FE02B
:100E2000208840F6C645A84203DB0420C84D287040
:100E300026E0208840F6D935A84203DB0320C44DC4
:100E400028701DE0208840F66C25A84203DB0220B4
:100E5000BF4D287014E02088B0F5016F03DB01203E
:100E6000BB4D28700CE0208840F20F45A84207DBFC
:100E70000020B74D287003E0002008700320187090
:100E800016E0208840F6DC65A84204DC1078401C9F
:100E9000107007E007E00020087003201870AC48CD
:100EA000007830BD04E0002008700320187000BFF7
:100EB00000BFFE20F5E700B5A64BA74AA749A84802
:100EC000FFF76EFFA749087008460078FE2800D09B
:100ED00000BFA448007800BD002204E0002300F811
:100EE000013B531C9AB20B1D9A42F7DB704710B5B9
:100EF00002460B4600210020012104E0545C04441A
:100F0000E0B24C1CA1B2DC1CA142F7DB4442E0B2CF
:100F100010BD70B505460E46002400BF0CE0295DEB
:100F2000914803F017FA00BF80218F4803F080FA40
:100F30000028F9D0601C84B2301D8442EFDB70BD04
:100F400010B502460B460020002104E032F81140A3
:100F500020444C1CE1B29942F8DB10BD70470146B9
:100F6000002000BF04E0814A125C0A54421CD0B247
:100F70000A28F8DB70472DE9F04781460E464FF00E
:100F80000008002700240025F02096FBF0F000F078
:100F9000FF08F02096FBF0F100FB1160C7B23A4663
:100FA000414673A003F020FCB8F1000F78D075A083
:100FB000FFF78AFB55E078A0FFF786FBF0217AA0C7
:100FC00003F012FC21467DA003F00EFC7F4901EBEB
:100FD0000420FFF7C4FFC4EB041001017CA003F060
:100FE00003FC00250EE009EB0500C4EB041100EB47
:100FF00001100178754800EB042205F10A00115434
:10100000681C85B2F02DEEDB414679A003F0ECFBC5
:101010002CB901206D4901EB0421487104E0022044
:101020006A4901EB0421487175A0FFF74DFB3012AE
:10103000664901EB04218871644901EB0421CE71FA
:10104000624901EB0420F721FFF751FF5F4901EBF3
:10105000042181F8FA00601CC4B2A8F1010000F07C
:10106000FF08B8F1000FA6DCD7B968A0FFF72CFB8A
:10107000601EC4B2214668A003F0B6FB03205349AA
:1010800001EB04214871514901EB0420F721FFF7DE
:101090002EFF4E4901EB042181F8FA00601CC4B216
:1010A000002F3FD060A0FFF70FFB484901EB042061
:1010B000FFF755FF00250EE009EB0500C4EB041116
:1010C00000EB01100178414800EB042205F10A0011
:1010D0001154681C85B2BD42EEDB03203B4901EB95
:1010E000042148713012394901EB04218871FF2035
:1010F000364901EB0421C871344800EB04204772E3
:10110000324901EB0420F91DFFF7F1FE01462F489B
:1011100000EB042207F10A00115448A0FFF7D4FAAB
:10112000601CC4B248484470012047490870002040
:10113000FFF71EF8BDE8F08710B543480078012896
:1011400002D14148017881E0B7E000000010014081
:101150006004002064040020630400206204002076
:101160004E0400206104002000380140510000209E
:101170000D0A2075634C656E677468202564202510
:10118000640000000D0A2075634C656E6774684842
:1011900020213D20300000000D0A2075634C656E53
:1011A00067746848202D2D00204150505F44415401
:1011B000415F4C454E4754482025640020756342EA
:1011C000756653656C202564000000000C05002046
:1011D00020756342756653656C2A4150505F4441E7
:1011E00054415F4C454E47544820256400000000A0
:1011F0000D0A2075634C656E67746848202564008D
:101200000D0A204820454E44000000000D0A203100
:1012100031322D2D2D2D00000D0A2075634275668B
:1012200053656C20256400000D0A2075634C656EC3
:101230006774684C20213D20300000000D0A204CCE
:1012400020454E44000000004F000020F0A003F0B5
:10125000CBFAFEF78AFF00B110BD0020FEF799FF20
:101260000620FEF785FFF248407810B3F048417839
:10127000F0480278F0A003F0B7FAF54AED4B1B787E
:1012800002EB03229178F24AEA4B1B7802EB03202F
:10129000FFF73FFEE6484078401EE5494870E548C4
:1012A0000078401CE34908704FF4FA70FEF771FFB4
:1012B00006E00020DE49087002E00020DD490870E9
:1012C00000BFC9E72DE9F047074600250026A846DC
:1012D000A946082F47D2DFE807F04604090E131885
:1012E0001D22DCA0FFF7F0F9E04C3DE0E0A0FFF7A5
:1012F000EBF9E54C38E0E5A0FFF7E6F9E94C33E01F
:10130000E9A0FFF7E1F9F04C2EE0F0A0FFF7DCF9DF
:10131000F44C29E0F4A0FFF7D7F9F94C24E0F9A048
:10132000FFF7D2F9FC48FFF71AFE0A250AE0A5F1FB
:101330000A00F94948550846415DF8A003F054FAFF
:10134000681C85B2B5F5847FF1DD002506E0F24822
:10135000415DF2A003F048FA681C85B2B5F5847FC0
:10136000F5DDED4C00E000BF00BF94F8018094F87B
:10137000029049EA082631462046FFF7B8FDA11938
:10138000C870311DE8A003F02FFA002505E0615D6B
:10139000E9A003F029FA681C85B2301D8542F6DB0E
:1013A00031462046FFF7B5FD052000F047FFBDE8B8
:1013B000F08730B500240025E0480078002877D079
:1013C0000020DE490870DE480078AA2809D0DC48F1
:1013D0008078DB4A527840EA0221D948FFF77CFD49
:1013E00030BDD7488078D649497840EA0125D548AC
:1013F000007810F0010F11D1D248007840F00100C0
:10140000D0490870002405E0CD48005DCE4908555C
:10141000601CC4B2281D8442F6DB62E0C948007833
:1014200000F00200022812D0C648007840F0020006
:10143000C4490870002406E0C148015DC248643018
:101440000155601CC4B2281D8442F5DB49E0BD484B
:10145000007800F00400042812D0BA48007840F068
:101460000400B8490870002406E0B548015DB6489C
:10147000C8300155601CC4B2281D8442F5DB30E041
:10148000B048007800F00800082812D0AD48007875
:1014900040F00800AB490870002405E0A848015D51
:1014A000AA480155601CC4B2281D8442F6DB18E02E
:1014B0001BE0A448007800F01000102811D0A148CB
:1014C000007840F010009F490870002406E09C4816
:1014D000015D9E4864300155601CC4B2281D8442E1
:1014E000F5DB29469648FFF7F7FC00BF78E72DE9C2
:1014F000F041002600270025A846924800780028E1
:1015000064D09048007810F0010F0AD08D48007820
:1015100020F001008B4908708DA0FFF7D5F88A4CA8
:1015200045E08848007800F0020002280BD1854889
:10153000007820F002008349087089A0FFF7C4F802
:10154000814C643433E07F48007800F004000428C4
:101550000BD17C48007820F004007A49087084A000
:10156000FFF7B2F8794C643C21E07648007800F04F
:10157000080008280AD17348007820F00800714953
:1015800008707FA0FFF7A0F8704C10E06D4800785D
:1015900000F0100010280AD16A48007820F01000EE
:1015A000684908707AA0FFF78FF8684C6434667851
:1015B000A77847EA0628002501E0681CC5B208F1B3
:1015C00004008542F9DB2046BDE8F0810020207050
:1015D0002046F9E730B587B004460D4601A8FEF76E
:1015E000ADFD01A807C804AB07C3122C0ED2DFE87B
:1015F00004F009D7DBDFF0F4F8FCEBEAE9E8E7E612
:10160000E5E4E30E00208DF810001BE119E114E180
:101610000D0A2053797353656E6441707044617490
:10162000612E53656E64466C61672025640000007E
:101630004F000020650400200D0A205061636B6597
:1016400074436F756E7420256420256400000000CB
:101650000C0500200D0A2053454E445F4D53475F53
:101660004348414E47454E414D450000050000208E
:101670000D0A2053454E445F4D53475F4D55534926
:10168000435F504C41590000310000200D0A2053A7
:10169000454E445F4D53475F4D555349435F50415D
:1016A00055534500380000200D0A2053454E445F35
:1016B0004D53475F4D555349435F504C41595F501F
:1016C00041555345000000003F0000200D0A205303
:1016D000454E445F4D53475F4D555349435F535407
:1016E0004F500000460000200D0A2053454E445F35
:1016F0004D53475F504F5745524F4646000000003C
:101700002A0000200D0A2053454E445F4D53475F89
:1017100044415441000000005C0000200D0A2044B8
:1017200061746120256400000D0A2075734C656E9C
:101730006774682025640000202578004404002098
:10174000A80400205B0000200C0A0020380B0020B9
:101750000D0A204F757451756575653000000000E5
:101760000D0A204F757451756575653100000000D4
:101770000D0A204F757451756575653200000000C3
:101780000D0A204F757451756575653300000000B2
:101790000D0A204F757451756575653400000000A1
:1017A00001208DF811004DE001208DF8100049E076
:1017B00001208DF8120045E03BE036E031E02CE0FE
:1017C00027E022E01DE018E013E00EE009E004E06D
:1017D000FFE700208DF8120034E001208DF813009F
:1017E00030E001208DF814002CE000208DF813006B
:1017F00028E000208DF8140024E001208DF8150069
:1018000020E000208DF815001CE001208DF8160066
:1018100018E000208DF8160014E001208DF8170064
:1018200010E000208DF817000CE001208DF8180062
:1018300008E001208DF8190004E001208DF81A005D
:1018400000E000BF00BF8DF81B5004A807C8FEF7DA
:101850007DFC07B030BD2DE9F047002500260027AC
:10186000A846A946FFF743FE04462078AA2801D0DF
:10187000BDE8F0876678A77847EA062994F80380E0
:10188000002506E0615DAFF2501002F0ADFF681C6C
:10189000C5B209F104008542F4DBB8F1000F0CD0A9
:1018A000B8F1010F03D0B8F10C0F13D104E0617946
:1018B0002079FFF78FFE0EE00DE02079122806D187
:1018C00084A0FEF701FF6079FEF752FC00E000BF44
:1018D00000BF00E000BF00BF00BFC9E710B586B081
:1018E00004466846FEF72AFC9DE8070003AB07C3E1
:1018F0009DF81000012801D006B010BD022C06D0C2
:10190000032C08D0042C0AD0052C10D10BE00220A7
:10191000FFF7D8FC0BE00320FFF7D4FC07E004201E
:10192000FFF7D0FC03E00520FFF7CCFC00BF00BFB1
:1019300000BFE1E770B5054600240026FE2D03D068
:10194000294667A002F050FF082D5BD2DFE805F0C2
:1019500004080C1023272A470220FFF7BFFF52E09C
:101960000320FFF7BBFF4EE00420FFF7B7FF4AE07C
:101970005FA0FEF7A9FE3046FFF7C6F9304600F03B
:10198000CDFA304600F0DCF95E48007820F0010026
:101990005C49087037E00620FFF794FC33E0FFF75E
:1019A000A3F830E0002411E057490C55F02094FBD7
:1019B000F0F100FB114010B954A002F015FF52489D
:1019C000015D53A002F010FF601C84B2B4F57A7F71
:1019D000EADB4FF47A714C48FFF7CDFA13E04FA0E1
:1019E000FEF772FE304600F022F9304600F0EFF8C4
:1019F000304600F079F9304600F0A2F9304600F0A8
:101A000060FA00E000BF00BF70BD10B5044620784A
:101A100010F00F0F08D1607830B9A07810F0F00FF7
:101A200002D143A0FEF750FE10BD10B5002435488A
:101A3000007810F0010F4CD03248007820F00100FF
:101A4000304908703D48007800280CDD3C4800888B
:101A500000F580503B490988401A1B2190FBF1F0AA
:101A60003949086009E03648008836490988401A33
:101A70001B2190FBF1F03449086010E000240CE0D9
:101A800000F02CFC40B23149085508460257214667
:101A90002FA002F0A9FE601C84B21B2CF0DB2A48A8
:101AA00001680068401E284A10600029E6D12C48D1
:101AB00090F900102BA002F097FE294890F9011030
:101AC0002DA002F091FE264890F902102FA002F0FE
:101AD0008BFE10BD0D0A20434D445F41434B000077
:101AE0000D0A204B657956616C75652025640000F0
:101AF0000D0A2044495341424C4520414453313260
:101B000039390000500400205C0000200D0A20003C
:101B10000D0A204461746120257800000D0A2045DB
:101B20004E41424C45204144533132393900000086
:101B30000D0A204C6561645F6F6666006A040020D0
:101B40006E0400206C040020480400201B0C0020C0
:101B50000D0A206275665B25645D20257800000013
:101B6000000C00200D0A20414453317839785F443D
:101B700061746130202578000D0A2041445331788A
:101B800039785F4461746131202578000D0A204165
:101B90004453317839785F4461746132202578008C
:101BA00010B504460821E94801F019F90121E84877
:101BB00001F013F90421E64801F00FF90221E5488C
:101BC00001F00DF90221E24801F009F910BD10B54C
:101BD00004460121DE4801F000F9DFA0FEF774FDA4
:101BE000DFA0FEF771FD4FF4FA7000F027FBDEA0D6
:101BF000FEF76AFD0121D64801F0F1F8142000F04B
:101C000038FBDBA0FEF760FD0121D14801F0E5F8CB
:101C1000282000F02EFB10BD10B504460821CB484B
:101C200001F0DDF80221CA4801F0D9F810BD10B565
:101C300004460821C54801F0D0F80221C54801F04A
:101C4000CCF810BD10B504460421C14801F0C7F816
:101C500010BD10B504460421BD4801F0BEF810BD0A
:101C600070B505460C460221C34800F0A3FA0121D5
:101C7000C14800F09FFA2146BF4800F03FFA00BF7C
:101C80000221BD4800F08DFA0028F9D000BF0121E3
:101C9000B94800F086FA0028F9D00221B64800F0D1
:101CA00089FA0121B44800F085FAB34800F028FA17
:101CB000C0B270BD10B504460221A64801F08FF8ED
:101CC0002046FFF7BFFF0A20FEF755FA08212046FD
:101CD000FFF7C6FF2820FEF74EFA2046FFF7B9FFB0
:101CE0000A20FEF748FA10BD10B504462046FFF75B
:101CF000A9FF0A2000F0BDFA06212046FFF7B0FF39
:101D0000462000F0B6FA2046FFF7A3FF282000F097
:101D1000B0FA10BD10B504462046FFF793FF0A2025
:101D2000FEF729FA10212046FFF79AFF4620FEF71A
:101D300022FA2046FFF78DFF2820FEF71CFA10BD7F
:101D400010B504462046FFF77DFF0A2000F091FA07
:101D500011212046FFF784FF282000F08AFA204650
:101D6000FFF777FF142000F084FA10BD70B5064627
:101D70000D4614460221804800F01CFA01217E48DD
:101D800000F018FA29467C4800F0B8F900BF02219B
:101D9000794800F006FA0028F9D000BF0121764802
:101DA00000F0FFF90028F9D00221734800F002FA90
:101DB0000121714800F0FEF921466F4800F09EF9BC
:101DC00000BF02216C4800F0ECF90028F9D000BFF8
:101DD0000121694800F0E5F90028F9D002216648A0
:101DE00000F0E8F90121644800F0E4F970BD70B535
:101DF000044600252046FFF725FF0A2000F039FAA7
:101E0000002220212046FFF7B1FFAA212046FFF73C
:101E100027FF0546282000F02CFA2046FFF719FF7F
:101E2000142000F026FA284670BD2DE9F041064640
:101E30000027B84600240A2550A0FEF745FCFEF70F
:101E400026FF3046FFF7ACFE56A0FEF73DFC0A2009
:101E500000F00FFA3046FFF7EAFE56A0FEF734FC1A
:101E60003046FFF7B4FE58A0FEF72EFC3046FFF7D1
:101E70003BFF5BA0FEF728FC3046FFF761FF60A048
:101E8000FEF722FC15E075B13046FFF7B0FF0446BF
:101E9000214660A002F0A8FC3E2C01D14FF00108C1
:101EA000681EC5B205E063A0FEF70EFC0120BDE888
:101EB000F081B8F1000FE6D03046FEF725FF384636
:101EC000F5E710B504462046FEF711FF2046FFF760
:101ED00021FF2046FFF7EEFE5C48007820F001006D
:101EE0005A49087010BD70B505460C4602212248BB
:101EF00000F060F90121204800F05CF921461E48FD
:101F000000F0FCF800BF01211B4800F04AF900284E
:101F1000F9D0194800F0F4F8C0B270BD10B504460D
:101F200002210C4800F05BFF1420FEF724F9204644
:101F3000FFF788FE2820FEF71EF90A212046FFF74A
:101F40008FFE2820FEF717F910BD00000010014099
:101F5000000C0140000801400D0A2034310000004F
:101F60000D0A2034360000000D0A2034380000002D
:101F70000D0A203439000000003001400D0A2069AC
:101F80006E69745F414453317839785F446174619C
:101F90005F52656164795F496E74657272757074C1
:101FA000000000000D0A2044656C61795F31757393
:101FB000000000000D0A20506F7765725F55705F5A
:101FC00041445331783978000D0A20536F66745FAD
:101FD00052657365745F414453317839780000006D
:101FE0000D0A2053746F705F526561645F446174C1
:101FF000615F436F6E74696E756F757300000000EA
:102000000D0A204D6F64756C655F50726573656E67
:10201000740000000D0A20414453317839785F562E
:10202000657273696F6E5F49445F4E756D6265726C
:10203000202578000D0A204144535F317839785FBC
:102040004E4F545F464F554E440000005004002050
:10205000002101804FF48271418000218180C18084
:102060000121018100214181102181810021C18153
:1020700007210182704710B50022028802F4415204
:102080000B884C8823438C882343CC8823430C89BA
:1020900023434C8923438C892343CC8923431A430C
:1020A0000280838B4FF2FF74234083830B8A038269
:1020B00010BD21B1028842F04002028004E0028893
:1020C0004FF6BF731A400280704730B500240023DA
:1020D0000C110125A540ABB21AB185881D4385803E
:1020E00002E085889D43858030BD1AB183880B430B
:1020F000838002E083888B438380704781817047AF
:10210000014688897047A1F57E42FF3A04D00288D3
:1021100042F48072028004E002884FF6FF631A40A6
:102120000280704721B1828842F00402828004E07C
:1021300082884FF6FB731A408280704702884FF204
:10214000FF731A40028002880A43028070470188A8
:1021500041F480510180704721B1028842F400525D
:10216000028004E002884DF6FF731A400280704737
:1021700002460020012901D0108B00E0908A7047B0
:102180000146088A7047B1F5804F04D1028842F4B5
:102190008042028004E002884BF6FF731A400280FE
:1021A00070470246002013890B4201D0012000E055
:1021B00000207047CA4302817047F0B502460020F4
:1021C00000240023002501F00F070126BE40B4B211
:1021D0000B1101269E40B3B2968806EA03051689C4
:1021E000264202D00DB1012000E00020F0BD10B564
:1021F000002201F00F040123A3409AB2D3430381CC
:1022000010BD00004FF0E021096921F004014FF0FA
:10221000E0221161C21700EB5272C2F3C702224BD7
:102220001A701946097801EB4102C2EBC1114FF651
:10223000FF7202EAC1011D4A1180704701461B4A24
:1022400012884A434FF0E0235A6100229A6101222A
:102250001A6100BF4FF0E022106910F0010F02D0A8
:1022600010F4803FF6D000224FF0E0231A619A610B
:10227000704701460C4A12784A434FF0E0235A61F6
:1022800000229A6101221A6100BF4FF0E02210691A
:1022900010F0010F02D010F4803FF6D000224FF072
:1022A000E0231A619A6170476604002068040020E8
:1022B00010B51A490988B1F5805F05D10021174A88
:1022C00011800121164A117042B214490B88098805
:1022D000491C124C21801349CA5410BD1248008871
:1022E000B0F5805F04D100200F4908800C490870C8
:1022F0000D4801880088401C0B4A10800948405C4A
:1023000070470948008805490988884204D1044873
:10231000007808B9012070470020FCE76E04002017
:102320006A0400201B1C00206C040020314901437A
:10233000314A1160704770B5002100230F22C47824
:102340000CB32D4C246804F4E064C4F5E064210A65
:10235000C1F10403CA40447804FA03F184781440BC
:1023600021430901254C0678A155047804F01F0586
:102370000124AC4005786D114FF0E02606EB850591
:10238000C5F8004109E0047804F01F050124AC40C1
:102390001B4D0678761145F8264070BD194A0A4053
:1023A0000243154B1B1F1A60704739B1124A121DA8
:1023B00012680243104B1B1D1A6006E00E4A121DE4
:1023C000126882430C4B1B1D1A607047042808D109
:1023D0004FF0E021096941F004014FF0E022116162
:1023E00007E04FF0E021096921F004014FF0E022FD
:1023F000116170470000FA050CED00E000E400E018
:1024000080E100E080FFFF1F10B50446FA488442D7
:1024100008D10121401500F005FF0021601500F0F2
:1024200001FF17E0F548844208D10121001500F0B2
:10243000F9FE0021201500F0F5FE0BE0F048844283
:1024400008D10121C80300F0EDFE00214FF4004047
:1024500000F0E8FE10BD30B50246002000235068B1
:10246000E84C20400D790C6844EA05242043506074
:102470009068E54C2040D1E902542C434D7944EA60
:10248000450420439060D06A20F470000C7C641EE8
:10249000E4B2234340EA0350D06230BD0021016022
:1024A000017141718160C16001210174704721B1E6
:1024B000826842F00102826003E0826822F0010239
:1024C0008260704721B1826842F48072826003E0CA
:1024D000826822F480728260704710B50023CBB20C
:1024E0001AB144681C43446002E044689C43446061
:1024F00010BD816841F008018160704701460020ED
:102500008A6812F0080F01D0012000E00020704717
:10251000816841F0040181607047014600208A68AB
:1025200012F0040F01D0012000E00020704721B11B
:10253000826842F4A002826003E0826822F4A00272
:1025400082607047014600208A6812F4800F01D033
:10255000012000E00020704710B50A46002100234A
:10256000416821F46041531E41EA4331416010BD8E
:1025700021B1426842F40062426003E0426822F402
:10258000006242607047F0B504460D46002000210D
:10259000092D11DDE068A5F10A0606EB46070726BE
:1025A00006FA07F18843A5F10A0606EB460603FA88
:1025B00006F10843E0600CE0206905EB45070726BB
:1025C00006FA07F1884305EB450603FA06F10843CE
:1025D0002061072A0FDA606B561E06EB86071F265E
:1025E00006FA07F18843561E06EB860605FA06F141
:1025F0000843606322E00D2A0FDA206BD61F06EB3A
:1026000086071F2606FA07F18843D61F06EB8606C3
:1026100005FA06F10843206310E0E06AA2F10D0616
:1026200006EB86071F2606FA07F18843A2F10D067E
:1026300006EB860605FA06F10843E062F0BD21B11B
:10264000826842F48012826003E0826822F4801281
:10265000826070470146C86C80B2704766484C3053
:102660000068704721B1426842F48062426003E032
:10267000426822F480624260704721B1426842F4AD
:102680008052426003E0426822F480524260704708
:102690000A460021816821F4E041114381607047BE
:1026A00021B1826842F40042826003E0826822F431
:1026B00000428260704721B1826842F40212826057
:1026C00003E0826822F40212826070470146002013
:1026D0008A6812F4001F01D0012000E0002070473A
:1026E000F0B504461546002000220026092911DD18
:1026F000E068A1F10A0707EB470C072707FA0CF27D
:102700009043A1F10A0707EB470703FA07F21043CA
:10271000E0600CE0206901EB410C072707FA0CF29E
:10272000904301EB410703FA07F210432061A06BCD
:10273000C0F30156EF1C06F1010CA7EB0C0707EBE9
:10274000870C1F2707FA0CF29043EF1C06F1010CCF
:10275000A7EB0C0707EB870701FA07F21043A0630A
:10276000F0BD10B50A4600210023816B21F4401111
:10277000531E41EA0351816310BD08B50023009345
:102780000090009B0B440093009B1A6008BD08B5A5
:10279000024600200090009201F12800009B18449E
:1027A00000900098006880B208BD0A460021416888
:1027B000164B194011434160704741628262704775
:1027C0000A460021416821F01F0111434160704712
:1027D00040B109490831096841F40001064A08324C
:1027E000116007E004490831096821F40001024A38
:1027F00008321160704700000024014000280140A9
:10280000003C0140FFFEF0FFFDF7F1FFFFFD3FFF41
:102810000246002013680B4201D0012000E0002096
:102820007047CA430260704770B50246002000231B
:1028300000240B125568CEB205EA060415681D4245
:1028400002D00CB1012000E0002070BD00220A126D
:10285000D34303607047000001684FF6FE721140D9
:1028600001600021016041608160C1608C49884243
:1028700008D18B490839496841F00F01884A083A64
:1028800051608AE086491431884208D18449083968
:10289000496841F0F001824A083A51607DE0804980
:1028A0002831884208D17E490839496841F470616D
:1028B0007B4A083A516070E079493C31884208D13E
:1028C00077490839496841F47041754A083A5160BE
:1028D00063E073495031884208D171490839496829
:1028E00041F470216E4A083A516056E06C496431F7
:1028F000884208D16A490839496841F47001684A38
:10290000083A516049E066497831884208D1644903
:102910000839496841F07061614A083A51603CE009
:102920006049884206D1011F096841F00F01021F6A
:10293000116032E05B491431884208D15949091FBE
:10294000096841F0F001574A121F116025E055490E
:102950002831884208D15349091F096841F4706140
:10296000504A121F116018E04E493C31884208D18C
:102970004C49091F096841F470414A4A121F11600D
:102980000BE048495031884207D14649091F096880
:1029900041F47021434A121F1160704710B50022A4
:1029A000026847F6F0739A430C6A8B6823430C69FC
:1029B00023434C6923438C692343CC6923434C6AEA
:1029C00023438C6A23431A430260CB6843600B683D
:1029D00083604B68C36010BD00210160416081606D
:1029E000C160016141618161C161016241628162D5
:1029F000704721B1026842F00102026004E00268FF
:102A00004FF6FE731A40026070471AB103680B4319
:102A1000036002E003688B430360704741607047C6
:102A20000146486880B2704701460020002211F03C
:102A3000805F03D01B4B083B1A6802E0184B083B31
:102A40001A680A4201D0012000E00020704710F00F
:102A5000805F03D01349091F086002E0104908395C
:102A60004860704701460020002211F0805F03D0CB
:102A70000C4B083B1A6802E0094B083B1A680A42F3
:102A800001D0012000E00020704710F0805F03D0EB
:102A90000449091F086002E001490839486070478D
:102AA0000800024008040240002044490860091D53
:102AB0000860091D0860091D086041483F4914313C
:102AC0000860704700213D498279002A3AD00A46C1
:102AD000126803689A430B461A600A1D126803685D
:102AE0009A430B1D1A60027911440A6803681A435D
:102AF0000A60324A0832126803689A432F4B08333F
:102B00001A601A1D126803689A432C4B0C331A6022
:102B10004279102A0ED11A1F126803681A43274BF4
:102B200008331A601A1D126803681A43234B0C33CA
:102B30001A600DE02149427911440A6803681A437A
:102B40000A6005E0027911440A6803689A430A6042
:102B500070470021016001710C21417100218171D8
:102B600070471649103109680143144A1032116048
:102B7000704701460020114A143212680A4201D0FF
:102B8000012000E0002070470C49143108607047B4
:102B9000014600200022094B1B6803EA0102074B93
:102BA00014331B680B4202D00AB1012000E0002060
:102BB000704702491431086070470000000401406A
:102BC000FFFF0F0010B50446CA48844208D1012116
:102BD000042000F027FB0021042000F023FB46E046
:102BE000C548844208D10121082000F01BFB0021C8
:102BF000082000F017FB3AE0C048844208D10121C8
:102C0000102000F00FFB0021102000F00BFB2EE045
:102C1000BB48844208D10121202000F003FB0021A1
:102C2000202000F0FFFA22E0B648844208D10121BA
:102C3000402000F0F7FA0021402000F0F3FA16E0FF
:102C4000B148844208D10121802000F0EBFA002134
:102C5000802000F0E7FA0AE0AC48844207D1012165
:102C6000801500F0DFFA0021A01500F0DBFA10BD9E
:102C700010B50121084600F0D5FA0021012000F02E
:102C8000D1FA10BD2DE9F0410246002500260020B2
:102C900000230024002791F803C00CF00F0591F8E1
:102CA00003C01CF0100F03D091F802C04CEA0505D8
:102CB00091F800C0BCF1000F31D0146800202BE067
:102CC0004FF0010C0CFA00F3B1F800C00CEA030657
:102CD0009E4220D183004FF00F0C0CFA03F7BC4347
:102CE00005FA03FC4CEA040491F803C0BCF1280F78
:102CF00006D14FF0010C0CFA00FCC2F814C00AE037
:102D000091F803C0BCF1480F05D14FF0010C0CFA4B
:102D100000FCC2F810C0401C0828D1D31460B1F8E0
:102D200000C0BCF1FF0F34DD546800202EE000F13C
:102D3000080C4FF0010808FA0CF3B1F800C00CEAD7
:102D400003069E4221D183004FF00F0C0CFA03F7CB
:102D5000BC4305FA03FC4CEA040491F803C0BCF13F
:102D6000280F05D100F1080C08FA0CF8C2F81480FD
:102D700091F803C0BCF1480F07D100F1080C4FF0E7
:102D8000010808FA0CF8C2F81080401C0828CED3BD
:102D90005460BDE8F0814FF6FF710180022181701F
:102DA0000421C17070470246002093680B4201D095
:102DB000012000E0002070470146886880B270471B
:102DC00002460020D3680B4201D0012000E0002021
:102DD00070470146C86880B2704701617047416121
:102DE00070470AB1016100E041617047C1607047FE
:102DF0004FF480320A438261816182618269826913
:102E0000704702460020424B18684FF68073184006
:102E100040EA021008433E4B186070473D49C861C4
:102E20007047F0B50A46002300240021002500F079
:102E30000046B6F1004F02D1354EF16901E0344E43
:102E40007168C0F3034583B200F44016B6F5401F25
:102E500008D121F070612E4E766826F070662C4FF6
:102E60007E6012E000F48016B6F5801F06D10326BE
:102E700006FA05F4A14341F0706106E0460D360103
:102E800003FA06F6B14341F0706122B1460D3601F6
:102E900003FA06F6314300F00046B6F1004F02D1C6
:102EA0001B4EF16101E01A4E7160F0BD30B5002299
:102EB0008B071C0F0F2303FA04F2154B08338C10F9
:102EC00053F824309343124C08348D1044F82530C5
:102ED00023468C1053F824308C07240F00FA04F496
:102EE00023430B4C08348D1044F8253030BD0A497B
:102EF0000860704700080140000C014000100140CC
:102F00000014014000180140001C01400020014055
:102F10000000014000002042DC002042DD48006843
:102F200040F00100DB49086008464068DA49084083
:102F3000D849486008460068D8490840D549086023
:102F40000846006820F4802008600846406820F4A5
:102F5000FE0048604FF41F0088607047CD49096843
:102F600021F48031CB4A11601146096821F4802197
:102F70001160B0F5803F03D0B0F5802F0ED106E090
:102F8000C449096841F48031C24A116007E0C1496F
:102F9000096841F4A021BF4A116000E000BF00BFF2
:102FA000704710B501460022002300204A11012A73
:102FB00002D1B84C236806E0022A02D1B54C236A3C
:102FC00001E0B44C636A01F01F02012494401C42EA
:102FD00001D0012000E0002010BD38B50020009095
:102FE0000024002500BF3120FFF7DBFF05460098D5
:102FF000401C00900098B0F5A06F01D0002DF2D0D9
:103000003120FFF7CEFF08B1012400E00024204664
:1030100038BD014600209F4A106820F0F80040EAC1
:10302000C100106070479E4908607047024600204A
:10303000984B586820F47C1042EA01031843954BE2
:103040005860704796490866704701460020914ACB
:10305000506820F003000843506070478D48406876
:1030600000F00C007047014600208A4A506820F0AA
:10307000F00008435060704701460020854A5068C0
:1030800020F4E06008435060704701460020814A08
:10309000506820F4605040EAC1005060704729B188
:1030A0007C4A527A02437B4B5A7204E0794A527A44
:1030B0008243784B5A7270477A49086070470146DC
:1030C0000020744A506820F4404008435060704724
:1030D0000021754A11706F4A82F82010012802D031
:1030E000042808D103E001216F4A117004E0052192
:1030F0006D4A117000E000BF00BF70476B49086067
:1031000070476449096A0143624A1162704767491E
:1031100044390860704730B50021002200240023A4
:103120005C4D6D6805F00C0121B1042905D008291A
:1031300023D105E05E4D056022E05D4D05601FE096
:10314000544D6D6805F47012524D6D6805F480346D
:10315000022505EB92421CB9564D554305600BE024
:103160004C4D6D6815F4003F03D0524D554305603A
:1031700002E04F4D5543056002E04D4D056000BF34
:1031800000BF444D6D6805F0F00109094A4D6B5CC4
:103190000568DD4045603F4D6D6805F4E061090A52
:1031A000454D6B5C4568DD4085603A4D6D6805F4C2
:1031B0006051C90A404D6B5C4568DD40C560354DC6
:1031C0006D6805F44041890B3C4D6B5CC568B5FBEF
:1031D000F3F5056130BD29B12E4A526902432D4BEA
:1031E0005A6104E02B4A526982432A4B5A61704764
:1031F00029B1284A92690243264B9A6104E0254A84
:1032000092698243234B9A61704729B1214AD2695E
:103210000243204BDA6104E01E4AD26982431D4B0F
:10322000DA61704729B11B4AD2680243194BDA6050
:1032300004E0184AD2688243164BDA60704729B11D
:10324000144A12690243134B1A6104E0114A1269CD
:103250008243104B1A617047144940390860704727
:103260000F49C86470470B49C87170470948406AE4
:1032700040F0807007494862704701460020054AC7
:1032800092680A4201D0012000E000207047014905
:1032900088727047001002400000FFF8FFFFF6FE42
:1032A00000004242D80042422010024080044242C4
:1032B00000127A0000093D00700400208004002004
:1032C00010B50446FE48844208D10121C014FFF71E
:1032D000A9FF0021E014FFF7A5FFC4E0B4F1804F7F
:1032E00008D101210846FFF7AAFF00210120FFF7BE
:1032F000A6FFB8E0F348844208D101210220FFF77D
:103300009EFF00210220FFF79AFFACE0EE488442C6
:1033100008D101210420FFF792FF00210420FFF7CC
:103320008EFFA0E0E948844208D101210820FFF780
:1033300086FF00210820FFF782FF94E0E4488442E2
:1033400008D101211020FFF77AFF00211020FFF79C
:1033500076FF88E0DF48844208D101212020FFF772
:103360006EFF00212020FFF76AFF7CE0DA488442EC
:1033700008D101214014FFF755FF00216014FFF729
:1033800051FF70E0D548844209D10121C804FFF7FC
:1033900049FF00214FF40020FFF744FF63E0D048CD
:1033A000844209D101210805FFF73CFF00214FF4B9
:1033B0008010FFF737FF56E0CA48844209D1012147
:1033C0004805FFF72FFF00214FF40010FFF72AFFF9
:1033D00049E0C548844208D101214020FFF72FFF72
:1033E00000214020FFF72BFF3DE0C048844208D178
:1033F00001218020FFF723FF00218020FFF71FFF1E
:1034000031E0BB48844208D101218015FFF717FF46
:103410000021A015FFF713FF25E0B648844209D12B
:1034200001210804FFF7FEFE00214FF48030FFF772
:10343000F9FE18E0B048844209D101214804FFF7A1
:10344000F1FE00214FF40030FFF7ECFE0BE0AB483B
:10345000844208D101218804FFF7E4FE00214FF4E3
:103460008020FFF7DFFE10BD00220288944B9842B7
:103470000ED0994B98420BD0B0F1804F08D0914BB1
:10348000984205D0904B984202D0904B984204D17C
:103490004FF68F731A404B881A438D4B984207D0D2
:1034A0008C4B984204D04FF6FF431A40CB881A4306
:1034B00002808B8883850B880385814B98420BD0D3
:1034C000854B984208D08B4B984205D08A4B984246
:1034D00002D08A4B984201D10B7A03860123838262
:1034E000704770B5002400220023058C4FF6FE764D
:1034F00035400584028C8388048B4FF68F752C40F1
:10350000B51E2C400D882C43751E2A400D892A4378
:103510004D882A436A4DA8420BD06F4DA84208D06F
:10352000744DA84205D0744DA84202D0734DA842F4
:1035300013D14FF6F7752A404D892A434FF6FB7594
:103540002A408D882A434FF6FF652B404FF6FF55E2
:103550002B408D892B43CD892B4383800483CD88D9
:103560008586028470BD70B5002400220023058C7E
:103570004FF6EF7635400584028C8388048B48F63D
:10358000FF752C404FF6FF452C400D884FF6FF7617
:1035900006EA05252C434FF6DF752A400D8906EA19
:1035A00005152A434D8806EA05152A43444DA842CD
:1035B00002D0494DA8421DD14FF67F752A404D8952
:1035C0004FF6FF7606EA05152A434FF6BF752A40E7
:1035D0008D8806EA05152A434FF6FF352B404FF23A
:1035E000FF752B408D8906EA85052B43CD8906EAB8
:1035F00085052B4383800483CD880587028470BDB5
:1036000070B5002400220023058C4FF6FF6635407C
:103610000584028C8388848B4FF68F752C404FF67F
:10362000FC752C400D882C434FF6FF552A400D8920
:103630004FF6FF7606EA05252A434D8806EA05255A
:103640002A431F4DA84202D0234DA8421DD14FF25C
:10365000FF752A404D894FF6FF7606EA05252A4375
:103660004FF6FF352A408D8806EA05252A434EF697
:10367000FF752B404DF6FF752B408D8906EA051529
:103680002B43CD8906EA05152B4383808483CD889F
:103690008587028470BD70B5002200230024058C4C
:1036A0004EF6FF7635400584038C8488828B48F67D
:1036B000FF752A404FF6FF452A400D8820E00000A4
:1036C000002C01400004004000080040000C0040B5
:1036D000001000400014004000340140004C014044
:1036E000005001400054014000180040001C004000
:1036F00000200040004001400044014000480140DB
:103700004FF6FF7606EA05252A434DF6FF752B4056
:103710000D8906EA05352B434D8806EA05352B430E
:10372000FA4DA84202D0FA4DA84208D14BF6FF75D7
:103730002C408D894FF6FF7606EA85152C43848050
:103740008283CD88A0F84050038470BD828B4FF2F5
:10375000FF331A408283828B4FF6FF7303EA012303
:103760001A4382837047F0B50C46154600220021AB
:103770000026078C4EF6FF7C07EA0C070784828B35
:10378000018C4FF6FF7707EA043640F6FF473A40D0
:103790004FF6FF7707EA05273A434FF6FF7707EA28
:1037A00003373A43D94FB8420ED0D94FB8420BD065
:1037B000B0F1804F08D0D74FB84205D0D64FB842AD
:1037C00002D0D64FB84206D14DF6FF77394046F4C5
:1037D0008057394305E047F6FF57394044F4805796
:1037E000394382830184F0BD828B4FF6F3731A4014
:1037F0008283828B0A4382837047F0B50C4615465C
:10380000002200210026078C4FF6FF6C07EA0C0708
:103810000784828B018C4FF6FF7707EA04264FF668
:103820000C773A404FF6FF7707EA03172F433A43E6
:10383000B64FB8420ED0B64FB8420BD0B0F1804F61
:1038400008D0B44FB84205D0B34FB84202D0B34FFE
:10385000B84206D14FF6FF57394046F480773943D6
:1038600005E04FF2FF57394044F4807739438283B3
:103870000184F0BD028B4FF2FF331A400283028BAA
:103880004FF6FF7303EA01231A4302837047F0B532
:103890000C461546002200210026078C4FF6EF7CCF
:1038A00007EA0C070784028B018C4FF6FF7707EAC3
:1038B000041640F6FF473A404FF6FF7707EA033712
:1038C0003A434FF6FF7707EA05273A438F4FB8424E
:1038D0000ED08F4FB8420BD0B0F1804F08D08D4F33
:1038E000B84205D08C4FB84202D08C4FB84206D1B6
:1038F0004FF6DF77394046F01007394305E04FF6C1
:103900005F77394044F01007394302830184F0BDEA
:10391000028B4FF6F3731A400283028B0A43028331
:103920007047F0B50C46154600220021068C4FF674
:10393000FE773E400684028B018C4FF60C763240B7
:103940007E1C06EA03162E433243704EB0420ED060
:103950006F4EB0420BD0B0F1804F08D06D4EB042E8
:1039600005D06D4EB04202D06C4EB04206D14FF63B
:10397000FD76314044F00106314305E04FF6F5761F
:10398000314044F00106314302830184F0BD70B53B
:1039900005460C465D4885420ED05D4885420BD0F9
:1039A000B5F1804F08D05B48854205D05A48854222
:1039B00002D05A48854200D100E000BF208850B9AB
:1039C0002389A28861882846FFF7ABFFE188284653
:1039D000FFF79EFF25E0208804280AD12389A288CA
:1039E00061882846FFF753FFE1882846FFF742FF2A
:1039F00017E0208808280AD12389A28861882846F0
:103A0000FFF7FBFEE1882846FFF7EEFE09E0238979
:103A1000A28861882846FFF7A6FEE1882846FFF7BE
:103A200095FE70BD2DE9F04105460C4600260127A4
:103A3000608808B9022600E00026A088012801D18C
:103A4000022700E001272088A0B92389A288618885
:103A50002846FFF766FFE1882846FFF759FF2389CC
:103A60003A4631462846FFF712FFE1882846FFF71D
:103A700001FF13E02389A28861882846FFF707FF2A
:103A8000E1882846FFF7F6FE23893A463146284664
:103A9000FFF747FFE1882846FFF73AFFBDE8F081CE
:103AA0000A884B881A438B881A43CB881A430B89A0
:103AB0001A434B891A438B891A43A0F84420704754
:103AC0004FF6FF71818000210180C1804180017229
:103AD00070470021018041808180C1800181418146
:103AE0008181C18170470021018041800121818055
:103AF0000021C180018170470021018041808180C7
:103B0000C18001814181818170470000002C01400A
:103B1000003401400004004000080040000C004058
:103B200021B1028842F00102028004E002884FF6CF
:103B3000FE731A400280704731B1B0F8442042F45D
:103B40000042A0F8442005E0B0F84420C2F30E0281
:103B5000A0F8442070471AB183890B43838102E0A7
:103B600083898B43838170478182704741EA0203D6
:103B7000A0F8483070471AB183890B43838102E073
:103B800083898B438381704701894FF6F872114016
:103B9000018170470A46002101894FF68F73194051
:103BA00011430181704730B504460D462946204631
:103BB000FFF7F0FF208940F00700208130BD2DE99C
:103BC000F04104460D4616461F46602D06D13B4681
:103BD000012231462046FFF75AFE05E03B4601220E
:103BE00031462046FFF79DFE29462046FFF7D2FFCB
:103BF000208940F007002081BDE8F08130B50C46F7
:103C000000210189C9B24FF6FF7505EA0325154366
:103C100025432943018130BD2DE9F04105460E467B
:103C200017469846002443463A4631462846FFF751
:103C3000E5FF2C894FF6F870044044F007044FF676
:103C40008F70044044F070042C81BDE8F081F0B521
:103C500004460D4616461F463B4632462946204638
:103C6000FFF7CCFF208940F480402081F0BD018522
:103C7000828270470A46002101884FF68F731940EF
:103C8000114301807047F0B50C4615461E460021D1
:103C9000002200230189028B038C4FF6F87739400C
:103CA00021434FF6FC473A4040F201173A434FF6A2
:103CB000DD773B404FF6FF7707EA06172F433B437C
:103CC000018102830384F0BD0A460021018B4FF677
:103CD0008F7319401143018370470A460021018BFD
:103CE00048F6FF7319404FF6FF7303EA02231943A6
:103CF000018370470A460021818B4FF68F7319406C
:103D00001143818370470A460021818B48F6FF7377
:103D100019404FF6FF7303EA02231943818370476A
:103D200021B1028842F08002028004E002884FF64E
:103D30007F731A400280704721B1828842F00402EA
:103D4000828004E082884FF6FB731A4082807047BD
:103D500021B1828842F00802828004E082884FF616
:103D6000F7731A408280704721B1828842F00102C5
:103D7000828004E082884FF6FE731A40828070478A
:103D80000A460021018B4FF6F77319401143018356
:103D900070470A460021018B4FF2FF7319404FF61E
:103DA000FF7303EA02231943018370470A46002187
:103DB000818B4FF6F77319401143818370470A4690
:103DC0000021818B4FF2FF7319404FF6FF7303EA16
:103DD00002231943818370470A460021018B4FF665
:103DE000FB7319401143018370470A460021018B80
:103DF0004FF6FF3319404FF6FF7303EA02231943CE
:103E0000018370470A460021818B4FF6FB731940EE
:103E10001143818370470A460021818B4FF6FF339F
:103E200019404FF6FF7303EA022319438183704759
:103E30000A460021018B4FF67F731940114301831D
:103E400070470A460021018BC1F30E014FF6FF7344
:103E500003EA02231943018370470A460021818B3C
:103E60004FF67F7319401143818370470A46002142
:103E7000818BC1F30E014FF6FF7303EA022319434E
:103E8000818370470A460021018C4FF6FD7319406B
:103E90001143018470470A460021018C4FF6F773E5
:103EA00019401143018470470A460021018C4FF6E6
:103EB000DF7319404FF6FF7303EA021319430184BD
:103EC00070470A460021018C4FF67F7319404FF668
:103ED000FF7303EA02131943018470470A46002165
:103EE000018C4FF6FF5319404FF6FF7303EA02238C
:103EF0001943018470470A460021018C4FF2FF7379
:103F000019404FF6FF7303EA0223194301847047F7
:103F10000A460021018C4DF6FF7319404FF6FF73DE
:103F200003EA023319430184704730B500230124AA
:103F30008C40A3B2048C9C430484048C02FA01F5E7
:103F4000ADB22C43048430BD30B5002304248C4032
:103F5000A3B2048C9C430484048C02FA01F5ADB234
:103F60002C43048430BD70B503460020002418465D
:103F7000183001258D40ACB21D8CA5431D8409B1BC
:103F8000082909D100EB6100056825F0700505607E
:103F90000568154305600EE00D1FC5F34E05284466
:103FA000056825F4E045056005684FF6FF7606EAEA
:103FB00002263543056070BD21B1028842F002023D
:103FC000028004E002884FF6FD731A4002807047B9
:103FD00021B1028842F00402028004E002884FF618
:103FE000FB731A400280704721B1828842F0800240
:103FF000828004E082884FF67F731A408280704787
:1040000002884FF6F7731A40028002880A43028042
:10401000704782884FF68F731A40828082880A43E5
:104020008280704702894FF6F8731A400281028934
:104030000A430281704702894FF67F731A4002815A
:1040400002890A43028170478184704781857047E5
:10405000818670470187704781877047A0F84010BC
:10406000704702884FF6FF431A40028002880A43D5
:10407000028070470146888E70470146088F70475E
:104080000146888F70470146B1F8400070470146ED
:10409000888C70470146088D704702460020138ABD
:1040A0000B4201D0012000E000207047CA43028289
:1040B000704730B50246002000230024158A05EA27
:1040C0000103958905EA010413B10CB1012000E058
:1040D000002030BDCA4302827047000010B504467C
:1040E000FB48844209D101218803FFF79BF8002196
:1040F0004FF48040FFF796F832E0F648844209D149
:1041000001214804FFF79BF800214FF40030FFF72E
:1041100096F825E0F048844209D101218804FFF790
:104120008EF800214FF48020FFF789F818E0EB4863
:10413000844209D10121C804FFF781F800214FF41E
:104140000020FFF77CF80BE0E548844208D101210C
:104150000805FFF774F800214FF48010FFF76FF89F
:1041600010BD2DE9F04786B005460E460024A24654
:1041700000BFA1460027B08900B100BF2F462C8A9E
:104180004CF6FF700440F08804432C82AC894EF654
:10419000F3100440B088318908437189084304430F
:1041A000AC81AC8A4FF6FF400440B0890443AC8236
:1041B00001A8FEF7B0FFC648874202D1DDF810A083
:1041C00001E0DDF80CA0A88910F4004F08D00AEB3C
:1041D000CA0000EB0A1031684900B0FBF1F807E0B3
:1041E0000AEBCA0000EB0A1031688900B0FBF1F855
:1041F0006420B8FBF0F004012009642101FB108960
:10420000A88910F4004F08D0322000EBC900B0FBA1
:10421000F1F000F00700044308E0322000EB091041
:104220006421B0FBF1F000F00F0004432C8106B0D4
:10423000BDE8F0874FF41651016000218180C180F4
:1042400001810C21418100218181704710B5024616
:104250000020108A4FF2FF0318400B884C8823433C
:104260008C882343CC8823431843108210BD00213F
:10427000018041808180C180704721B1828942F4F0
:104280000052828104E082894DF6FF731A408281D8
:104290007047F0B503460024002600250020A1F554
:1042A00010676A3F00D100BF1846C1F3421401F005
:1042B0001F06012707FA06F5012C01D10C3004E096
:1042C000022C01D1103000E014301AB107682F43DE
:1042D000076002E00768AF430760F0BD1AB1838A48
:1042E0000B43838202E0838A8B4383827047028A76
:1042F0004FF6F0731A400282028A0A430282704724
:1043000082894FF2FF731A40828182890A43828137
:10431000704721B1828942F00202828104E08289E1
:104320004FF6FD731A4082817047028A4FF6DF73A1
:104330001A400282028A0A430282704721B1028A2D
:1043400042F48042028204E0028A4BF6FF731A4074
:1043500002827047C1F30802828070470146888854
:10436000C0F308007047818941F0010181817047E5
:10437000028BD2B20283028B42EA0122028370478F
:10438000028B02F47F420283028B0A43028370474E
:1043900021B1828A42F02002828204E0828A4FF6B2
:1043A000DF731A408282704721B1828A42F0100284
:1043B000828204E0828A4FF6EF731A40828270474D
:1043C00021B1828A42F00802828204E0828A4FF69A
:1043D000F7731A408282704721B1828942F4004209
:1043E000828103E08289C2F30E028281704721B18B
:1043F000828A42F40062828204E0828A4FF2FF7372
:104400001A4082827047828A4FF6FB731A4082827A
:10441000828A0A438282704721B1828A42F0020274
:10442000828204E0828A4FF6FD731A4082827047CE
:1044300002460020B1F5007F00D100BF13880B4277
:1044400001D0012000E00020704701F40072B2F5B5
:10445000007F00D100BFCA430280704770B502469A
:104460000024002300250020A1F510666A3E00D13B
:1044700000BFC1F3421501F01F03012606FA03F342
:10448000012D02D19689334006E0022D02D1168A11
:10449000334001E0968A33400C12012606FA04F4F8
:1044A0001688344013B10CB1012000E0002070BD2B
:1044B00010B500220023A1F510646A3C00D100BFB2
:1044C0000A1201249440A3B2DC43048010BD000012
:1044D000003801400044004000480040004C0040CB
:1044E000005000400CB50020019000906C4800681E
:1044F00040F480306A49086000BF6948006800F4F1
:10450000003000900198401C0190009820B901985B
:10451000A0F57F41FF39F0D16148006810F4003FF9
:1045200002D00120009001E00020009000980128B6
:1045300042D15C48006840F010005A4908600846C3
:10454000006820F0030008600846006840F00200A0
:1045500008605348406852494860084640684860CF
:104560000846406840F4806048600846406820F48F
:104570007C1048600846406840F4E81048600846EF
:10458000006840F08070086000BF4548006810F087
:10459000007FFAD04248406820F00300404948605C
:1045A0000846406840F00200486000BF3C48406850
:1045B00000F00C000828F9D10CBD10B5FFF792FFF0
:1045C00010BD10B53648006840F00100344908605D
:1045D0000846406834490840314948600846006848
:1045E000324908402E4908600846006820F48020BF
:1045F00008600846406820F4FE0048604FF41F0041
:104600008860FFF7DAFF4FF000602949086010BDAD
:1046100010B5002100200022214B5B6803F00C0143
:1046200021B1042906D0082928D107E0214B224CCA
:10463000236027E01F4B204C236023E0184B5B686E
:1046400003F47010164B5B6803F48032022303EB13
:10465000904022B9194B4343174C23600DE0104B97
:104660005B6813F4003F04D0144B4343124C2360A7
:1046700003E0104B4343104C236003E00D4B0E4C02
:10468000236000BF00BF064B5B68C3F303130C4CF1
:10469000E15C094B1B68CB40074C236010BD000058
:1046A00000100240002002400000FFF8FFFFF6FE6D
:1046B00008ED00E000127A008404002000093D00AB
:1046C000880400202DE9F05F0546002092469B46B5
:1046D00088460646814640241BE028464146474618
:1046E000224600F042F853465A46C01A914110D370
:1046F00011461846224600F029F82D1A67EB0108EA
:104700004F4622460120002100F020F817EB000957
:104710004E41201EA4F10104DFDC484631462A4602
:104720004346BDE8F09F0000064C074D06E0E068F8
:1047300040F0010394E8070098471034AC42F6D3E8
:10474000FBF7D8FCE84A0008084B0008202A04DBE5
:10475000203A00FA02F1002070479140C2F1200394
:1047600020FA03F3194390407047202A04DB203AD3
:1047700021FA02F00021704721FA02F3D040C2F181
:104780002002914008431946704770B501EB0204BE
:1047900010F8015B15F0070301D110F8013B2A1155
:1047A00006D110F8012B03E010F8016B01F8016B42
:1047B0005B1EF9D12B0705D40023521E0FD401F83C
:1047C000013BFAE710F8013B02F10202A1EB0303FF
:1047D00003E013F8015B01F8015B521EF9D5A14219
:1047E000D6D3002070BD00000FB4054B10B503A94F
:1047F000044A029800F018F810BC5DF814FB0000A1
:10480000A90600089804002002E008C8121F08C189
:10481000002AFAD170477047002001E001C1121F41
:10482000002AFBD1704700002DE9FF4F8DB09B4659
:104830000F460446002638E1252801D00F9959E09B
:104840000025641C9D49A84601222378203B02FADA
:1048500003F0084202D00543641CF6E720782E28B6
:1048600017D114F8010F45F004052A280ED06FF077
:104870002F022078A0F1300109290AD808EB88011D
:1048800002EB410100EB0108641CF2E757F8048BCE
:10489000641C20786C280DD004DC4C2812D06A28C7
:1048A00011D104E074280DD07A280CD10AE045F427
:1048B000001507E0617845F48015814202D1641C3F
:1048C00005F58015641C2278692A46D008DC002A88
:1048D00070D0582A69D0632A11D0642A08D13CE0EC
:1048E000702A69D0732A14D0752A5CD0782A5CD0DB
:1048F0000F9910465A46904706F10106D4E017F882
:10490000040B8DF8000000208DF80100E94601201D
:1049100003E057F8049B4FF0FF3069074FF00005A4
:1049200001D40AE06D1C45450DDA8542FADB19F821
:1049300005100029F6D106E06D1C8542FCDB19F854
:1049400005100029F8D12E4404E019F8010B5A464D
:104950000F9990476D1EF8D2A6E00A200021CDE9FC
:104960000801C5F3025002280BD001CFC11700295E
:104970000EDA4FF0000CD0EB0C006CEB01012D2394
:1049800009E007F1070727F00707F7E80201EEE75C
:104990002B0504D52B238DF82830012330E0EB07BD
:1049A0002ED02023F7E70A2000E010200021CDE9D7
:1049B000080109E07DE0FFE71020002145F0040533
:1049C000CDE908014FF00808C5F3025002281BD0BA
:1049D00001CF00214FF0000A2B0712D5702A19D001
:1049E000DDE908C38CF0100C5CEA030C09D150EA35
:1049F000010306D030238DF828308DF829200223BA
:104A00009A46582A10D00AE0FF1D27F00707F7E85A
:104A10000201DFE740228DF828204FF0010A28A28A
:104A20000DF120090B9209E02AA2F9E7DDE908233C
:104A3000FFF748FE0B9B9B5C09F8013D50EA010221
:104A4000F4D1ADEB090000F120000890680701D413
:104A50004FF001080899884502DDA8EB010000E04D
:104A600000208046002506E00AA85A46405D0F99BE
:104A70009047761C6D1C5545F6DB04E030205A4605
:104A80000F999047761CB8F10001A8F10108F5DCF8
:104A900005E019F8010B5A460F999047761C0899C2
:104AA000481E08900029F4DC641C207800287FF45C
:104AB000C3AE11B03046BDE8F08F000009280100F8
:104AC0003031323334353637383961626364656684
:104AD0000000000030313233343536373839414246
:104AE0004344454600000000084B00080000002039
:104AF0009C0400008A470008644B00089C040020C6
:104B0000842B0000184800085112AA000C17210538
:104B1000416374726F6E74656B132FAA1303021BCB
:104B20005E9D0712043B05F4073B06F3073B07F2C3
:104B3000074B08F14C33F7121AF002990B01FF01F1
:104B4000FF01FF01EED2FF0312FEFE2D010203045E
:104B50000410090607080902040608ACA24A041C4E
:044B600029184100CF
:04000005080000ED02
:00000001FF
